:020000040000FA
:10000000A304020AA3042F09A3043900A30430099E
:10001000A3043A00A3043109A3043B00A405A304EC
:100020003209A3043400A3043309A3043500100CDF
:100030002400190CA3042609A304300C2400340C5A
:10004000A3042609A3046400A305420A0400600077
:10005000A40284011F0E430600088401270A010838
:0800600000080108090800086E
:10008A00010C2A006B000A02B4000B020307F500F8
:10009A00B500200C2600100C2600080CA4043C0015
:1000AA00FC02550A580A200CA40426001402150161
:1000BA004307600A610A7E0A060C9201130143068D
:1000CA00670A680A6F0A050C9001110143076E0A54
:1000DA006F0A7E0A080C3800050C900111014307CB
:1000EA00770A780A7A0A060C3800070C3200000CE4
:1000FA003300070C98014306830A840A450AC10A99
:10010A00010C2A006B000A02F4010306B5020B0275
:10011A00F501210C2600110C2600070CA4043C0052
:10012A00FC02950A0000210CA4042600DC0C9401B0
:10013A004307A30A95024307A30AA40AC10A070CA4
:10014A00920113014306AA0AAB0AB20A050C9001EE
:10015A0011014307B10AB20AC10A090C3800050C99
:10016A00900111014307BA0ABB0ABD0A070C3800FD
:10017A00080C3200000C3300080C98014306C60A2A
:10018A00C70A850A010B010C2A006B000A02B40097
:10019A000B020307F500B500200C2600100C260000
:1001AA00050CA4043C00FC02D80A0000200CA4049C
:1001BA002600140215014307E30AE40A010B080C9E
:1001CA00920113014306EA0AEB0AF20A050C9001AE
:1001DA0011014307F10AF20A010B0A0C3800050C57
:1001EA00900111014307FA0AFB0AFD0A080C3800BC
:1001FA00090C3200000C3300090C98014306060B67
:10020A00070BC80A440B010C2A006B000A02F4010E
:10021A000306B5020B02F501210C2600110C26007B
:10022A00040CA4043C00FC02180B1B0B210CA404B4
:10023A002600DC0C94014307260B95024307260B84
:10024A00270B440B090C9201130143062D0B2E0BAD
:10025A00350B050C900111014307340B350B440B88
:10026A000B0C3800050C9001110143073D0B3E0BA6
:10027A00400B090C38000A0C3200000C33000A0C3F
:10028A0098014306490B4A0B080B830B010C2A0001
:10029A006B000A02B4000B020307F500B500200C3C
:1002AA002600100C2600040CA4043C00FC025B0B84
:1002BA00200CA4042600140215014307650B660BE3
:1002CA00830B0A0C9201130143066C0B6D0B740B22
:1002DA00050C900111014307730B740B830B0C0C73
:1002EA003800050C9001110143077C0B7D0B7F0B35
:1002FA000A0C38000B0C3200000C33000B0C98016E
:10030A004306880B890B4B0BC60B010C2A006B00AA
:10031A000A02F4010306B5020B02F501250C2600B8
:10032A00150C2600030CA4043C00FC029A0B0000E6
:10033A00250CA4042600DC0C94014307A80B9502A3
:10034A004307A80BA90BC60B0B0C9201130143061A
:10035A00AF0BB00BB70B050C900111014307B60B9D
:10036A00B70BC60B0D0C3800050C900111014307A1
:10037A00BF0BC00BC20B0B0C38000C0C3200000C6C
:10038A0033000C0C98014306CB0BCC0B8A0BF60BF3
:10039A00010C2A006B000A02B4000B020307F500E5
:1003AA00B500200C2600100C2600020CA4043C0008
:1003BA00FC02DD0BE00B200CA4042600140215013C
:1003CA004307E80BE90BF60B0C0C920113014307E8
:1003DA00EF0BF00BF60B0C0C3800050C3000000C80
:1003EA0031000D0C98014306FB0BFC0BCD0BA3054A
:1003FA00B40AA304000A010C2A006B000A02F401E1
:10040A000306B5020B02F501210C2600110C260089
:10041A000F0CA4043C00FC02100A0000210CA404E6
:10042A002600FF0C9500DC0C4306940003071E0A05
:10043A001F0A3B0AD20013014306240A250A2C0A82
:10044A00050C9001110143072B0A2C0A3B0A030CE5
:10045A003800050C900111014307340A350A370A9E
:10046A007800B802020C3200000C3300020C98012A
:10047A004306410AA3057B0B000AA4046600000C8C
:10048A0006006800510C2700800C02006100890AEE
:10049A0079007A00110C2600210C2600C70CA4044E
:1004AA003C00FC02560A0000110CA4042600010CB0
:1004BA002A006B000A02F9010306BA020B02FA01CA
:1004CA00030C9A00200C4306990003076D0A6E0A72
:1004DA004F0A6600060CA4043E00130C3D00AD0C46
:1004EA003C00FC02760AFD02760AFE02760A000049
:1004FA00010C2F000F02A404F601020C9600030758
:10050A00870A880A890A7B00DB0043068D0A8E0A5D
:10051A004D0AA305B40A010C2A006B000A02F40171
:10052A000306B5020B02F501700071007200730038
:10053A00210C2600110C2600120CA4043C00FC021B
:10054A00A40A210CA4042600FF0C9500DC0C430627
:10055A0094000307B10AB20AB40A7800B802180272
:10056A004306B80AB90A900AF10A010C2A006B007C
:10057A000A02B4000B020307F500B500200C26009E
:10058A00100C2600100CA4043C00FC02CA0ACD0A76
:10059A00200CA4042600140215014307D50AD60A22
:1005AA00F10A120213014306DB0ADC0AE30A050C0C
:1005BA00900111014307E20AE30AF10A020C38002A
:1005CA00050C900111014307EB0AEC0AED0A7800C9
:1005DA00010C3200000C3300D8004306F50AF60A73
:1005EA00BA0AA3053B0A010C2A006B000A02B400EE
:1005FA000B020307F500B500200C2600100C26009C
:10060A000B0CA4043C00FC02080B0000200CA40400
:10061A002600140215014307130B140B310B040CAB
:10062A009201130143061A0B1B0B220B050C9001B6
:10063A0011014307210B220B310B060C3800050C64
:10064A009001110143072A0B2B0B2D0B040C3800C8
:10065A00050C3200000C3300050C98014306360BDA
:10066A00370BF80A730B010C2A006B000A02F4011B
:10067A000306B5020B02F501210C2600110C260017
:10068A000A0CA4043C00FC02480B210CA40426001A
:10069A00DC0C94014307550B95024307550B560B87
:1006AA00730B050C9201130143065C0B5D0B640B83
:1006BA00050C900111014307630B640B730B070CC4
:1006CA003800050C9001110143076C0B6D0B6F0B81
:1006DA00050C3800060C3200000C3300060C980199
:1006EA004306780B790B380BA3047E0AB40B010C72
:1006FA002A006B000A02B4000B020307F500B500DA
:10070A00200C2600100C26000E0CA4043C00FC024F
:10071A008C0B200CA4042600140215014307960B27
:10072A00970BB40B020C9201130143069D0B9E0B0F
:10073A00A50B050C900111014307A40BA50BB40BE3
:10074A00040C3800050C900111014307AD0BAE0BE8
:10075A00B00B020C3800030C3200000C3300030CFF
:10076A0098014306B90BBA0B7C0BF70B010C2A0054
:10077A006B000A02F4010306B5020B02F501210C13
:10078A002600110C26000C0CA4043C00FC02CB0B26
:10079A00CE0B210CA4042600FF0C9500DC0C4306AA
:1007AA0094000307D90BDA0BF70B030C9201130120
:1007BA004306E00BE10BE80B050C9001110143071E
:1007CA00E70BE80BF70B050C3800050C900111013B
:1007DA004307F00BF10BF30B030C3800040C320047
:1007EA00000C3300040C98014306FC0BFD0BBB0BF9
:0407FA00A305310B17
:021FFE00FA0FD8
:00000001FF
