:020000040000FA
:10000000A304020AA3042A09A3043A00A3042B09A7
:10001000A3043B00A3042C09A3043C00A3042D0962
:10002000A3043D00100C24001A0CA3042109A3040E
:10003000300C2400340CA3042109A3046400A3049D
:10004000110B04006000A40284011F0E4306000887
:0C0050008401220A0108000809080008C9
:10022200A4046600000C06006100350B010C2A00D4
:100232006B000A02F4010306B5020B02F501200C61
:100242002600100C2600250B200CA4042600FF0C0F
:100252009500DC0C430694000307300B310B350B81
:10026200010C3000000C31001002110143063A0B60
:100272003B0B170B580B010C2A006B000A02B4004F
:100282000B020307F500B500200C2600100C260017
:100292004A0B4B0B200CA404260014021501430741
:1002A200530B540B580B020C3000000C3100D000E1
:1002B200110143065D0B5E0B3C0B7F0B010C2A0008
:1002C2006B000A02F4010306B5020B02F501200CD1
:1002D2002600100C26006D0B6E0B6F0B200CA40475
:1002E2002600FF0C9500DC0C4306940003077A0BF2
:1002F2007B0B7F0B030C3000000C3100020C9001D1
:1003020011014306850B860B5F0BA50B010C2A001E
:100312006B000A02B4000B020307F500B500200CC3
:100322002600100C2600950B960B970B980B200CB1
:10033200A4042600140215014307A00BA10BA50B70
:10034200040C3000000C3100030C90011101430633
:10035200AB0BAC0B870BD00B010C2A006B000A0213
:10036200F4010306B5020B02F501200C2600100C65
:100372002600200CA4043E00FE02BD0BC00B200C84
:10038200A4042600FF0C9500DC0C4306940003072E
:10039200CB0BCC0BD00B050C3000000C3100040C45
:1003A200900111014306D60BD70BAD0BF60B010CD6
:1003B2002A006B000A02B4000B020307F500B50025
:1003C200200C2600100C26004F0CA4043E00FE0256
:1003D200E80B0000200CA4042600140215014307B8
:1003E200F30BF40BF60B70007100050C9001110178
:0E03F2004306FC0BFD0BD80B350BA304000AD1
:021FFE00FA0FD8
:00000001FF
