:020000040000FA
:10000000A304020AA3042B09A3043D00A3042C09A2
:10001000A3043E00A405A3042D09A3043400A304F3
:100020002E09A3043500100C24001A0CA304220985
:10003000A304300C2400340CA3042209A30464009C
:10004000A304710A04006000A40284011F0E430689
:0E00500000088401230A0108000809080008BE
:1000E200A4046600000C0600000CC806010C2F00D8
:1000F200AF02010C2E007F0A03046E03EF027D0A99
:100102000E022F00000CA404E806010C2E00AE0221
:10011200010C2D008E0A03046D03EE028C0A0D02FF
:100122000F01FF0F2F000F02A404680161001002EB
:10013200110143079D0A9F0AA305690B000C970052
:10014200060C430696000307A70AA80AB30A010C85
:100152002A006B000A02F2010306B3020B02F3014A
:10016200A305460B7D007E00B10A010C2A006B003C
:100172000A02B6000B020307F700B700240C2600A0
:10018200140C2600630CA4043A00FA02C60A00000A
:10019200240CA4042600160217014307D10AD20A2E
:1001A200F00A140215014306D70AD80ADF0A050C21
:1001B200920113014307DE0ADF0AF00A020C300043
:1001C200000C3100050C920113014307E90AEA0A07
:1001D200EC0A70007100010C3400000C3500D000F4
:1001E20011014306F50AF60AB60A360B010C2A007B
:1001F2006B000A02F6010306B7020B02F701200C9C
:100202002600100C2600840CA4043A00FA02070B04
:100212000A0B200CA4042600FF0C9700DC0C4306FA
:1002220096000307150B160B360BD4001501430677
:100232001B0B1C0B230B050C920113014307220B12
:10024200230B360B030C3000000C3100050C92011D
:10025200130143072D0B2E0B320B010C3000000C47
:100262003100020C3400000C3500020C9001110127
:1002720043063C0B3D0BF70A7A0B010C2A006B007C
:100282000A02B6000B020307F700B700200C260093
:10029200100C2600A60CA4043A00FA024E0B200C05
:1002A200A4042600160217014307580B590B7A0BB8
:1002B200020C9401150143065F0B600B670B050CE2
:1002C200920113014307660B670B7A0B040C300093
:1002D200000C3100050C920113014307710B720BE4
:1002E200760B020C3000000C3100030C3400000CC1
:1002F2003500030C900111014306800B810B3E0B6C
:10030200C20B010C2A006B000A02F6010306B702B7
:100312000B02F701200C2600100C2600C70CA404C7
:100322003A00FA02920B0000200CA4042600FF0CF3
:100332009700DC0C430696000307A00BA10BC20B2F
:10034200030C940115014306A70BA80BAF0B050C78
:10035200920113014307AE0BAF0BC20B050C300029
:10036200000C3100050C920113014307B90BBA0BC3
:10037200BE0B030C3000000C3100040C3400000CE6
:100382003500040C900111014306C80BC90B820B06
:10039200F50B010C2A006B000A02B6000B020307E0
:1003A200F700B700200C2600100C2600E80CA4046D
:1003B2003A00FA02DA0BDD0B200CA4042600160226
:1003C20017014307E50BE60BF50B040C940115012D
:1003D2004307EC0BED0BF50B040C3000000C310065
:1003E200050C3200000C3300050C9001110143068C
:0E03F200FB0BFC0BCA0BA305F70BA304000AC0
:10065C00140C2600240C2600EF0CA4043A00360BD4
:10066C00FA02350B390B0000140CA4042600010C03
:10067C002A006B000A02FD010306BE020B02FE01FA
:10068C00030C9E00200C43069D0003074E0B4F0BE2
:10069C002E0B010C2A006B000A02F6010306B702AE
:1006AC000B02F701000C9300060C430692000307A3
:1006BC00600B610B690B7D007E007600770070008B
:1006CC00710072007300060CA4043C00130C3B0078
:1006DC00AD0C3A00FA02700BFB02700BFC02700BB3
:1006EC000000A4041002110143077D0B7E0BF70BD5
:1006FC00000C9700060C430696000307860B870B2D
:10070C00910B010C2A006B000A02F2010306B302E2
:10071C000B02F301AC0B7D007E00AC0B100C260021
:10072C00200C2600EF0CA4043A009C0BFA029B0B45
:10073C009F0B0000100CA4042600010C2A006B0077
:10074C000A02FD010306BE020B02FE01030C9E0011
:10075C00200C43069D000307B40BB50B940B010C46
:10076C002A006B000A02F6010306B7020B02F7011E
:10077C00000C9300060C430692000307C60BC70B34
:10078C00D00B7D007E007600770070007100720047
:10079C007300F70BF70B010C2A006B000A02F60131
:1007AC000306B7020B02F7017200730074007500A8
:1007BC00240C2600140C2600420CA4043A00FA0265
:1007CC00E50B240CA4042600FF0C9700DC0C43065C
:1007DC0096000307F20BF30BF70B010C3000000C27
:1007EC003100100211014306FC0BFD0BD10BA304CD
:0207FC00F00A01
:021FFE00FA0FD8
:00000001FF
