:020000040000FA
:10000000A304020AA3042A09A3043A00A3042B09A7
:10001000A3043B00A3042C09A3043C00A3042D0962
:10002000A3043D00100C24001A0CA3042109A3040E
:10003000300C2400340CA3042109A3046400A3049D
:10004000110B04006000A40284011F0E4306000887
:0C0050008401220A0108000809080008C9
:10022200A4046600000C06006100350B010C2A00D4
:100232006B000A02F4010306B5020B02F501200C61
:100242002600100C2600250B200CA4042600FF0C0F
:100252009500DC0C430694000307300B310B350B81
:10026200010C3000000C31001002110143063A0B60
:100272003B0B170B5A0B010C2A006B000A02B4004D
:100282000B020307F500B500200C2600100C260017
:100292004A0B4B0B4C0B4D0B200CA40426001402F2
:1002A20015014307550B560B5A0B020C3000000C7C
:1002B2003100D000110143065F0B600B3C0B810B38
:1002C200010C2A006B000A02B4000B020307F500BE
:1002D200B500200C2600100C2600040CA4043E00DD
:1002E200FE02710B740B200CA404260014021501EB
:1002F20043077C0B7D0B810B030C3000000C31009B
:10030200020C900111014306870B880B610BA90BAC
:10031200010C2A006B000A02B4000B020307F5006D
:10032200B500200C2600100C2600070CA4043E0089
:10033200FE02990B0000200CA404260014021501F1
:100342004307A40BA50BA90B040C3000000C3100D1
:10035200030C900111014306AF0BB00B890BD10BBB
:10036200010C2A006B000A02B4000B020307F5001D
:10037200B500200C2600100C2600200CA4043E0020
:10038200FE02C10BC40B200CA404260014021501AA
:100392004307CC0BCD0BD10B050C3000000C310008
:1003A200040C900111014306D70BD80BB10BF60BCD
:1003B200010C2A006B000A02B4000B020307F500CD
:1003C200B500200C2600100C26001A0CA4043E00D6
:1003D200FE02E90B200CA4042600140215014307B7
:1003E200F30BF40BF60B70007100050C9001110178
:0E03F2004306FC0BFD0BD90B350BA304000AD0
:021FFE00FA0FD8
:00000001FF
