:020000040000FA
:10000000A304020AA3042A09A3043A00A3042B09A7
:10001000A3043B00A3042C09A3043C00A3042D0962
:10002000A3043D00100C24001A0CA3042109A3040E
:10003000300C2400340CA3042109A3046400A3049D
:100040001A0B04006000A40284011F0E430600087E
:0C0050008401220A0108000809080008C9
:10023400A4046600000C06006100100211014307CB
:10024400240B250B510B000C9500060C430694005F
:1002540003072D0B2E0B380B010C2A006B000A022E
:10026400F2010306B3020B02F3013A0B7A007B009E
:10027400100C2600200C2600020CA4043E00FE02F2
:10028400410B440B100CA4042600010C2A006B0043
:100294000A02FA010306BB020B02FB013A0BD0006F
:1002A40011014307560B570BA80B6E0B200C2600AD
:1002B400100C2600130CA4043E00FE025F0B000089
:1002C400200CA4042600010C2A006B000A02FA0187
:1002D4000306BB020B02FB01FF0C9B00FA0C430656
:1002E4009A000307760B770B580B010C2A006B005E
:1002F4000A02F4010306B5020B02F501000C950095
:10030400060C430694000307880B890B930B010C1E
:100314002A006B000A02F2010306B3020B02F30186
:10032400950B7A007B00000C9300060C43069200A8
:1003340003079D0B9E0BA80B7A007B0074007500CD
:10034400020C3000000C310072007300020C9001AA
:1003540011014307AE0BAF0B1F0BC50B200C26007E
:10036400100C26001A0CA4043E00FE02B70B200C4D
:10037400A4042600010C2A006B000A02FA010306F9
:10038400BB020B02FB01FF0C9B00FA0C43069A0014
:100394000307CD0BCE0BB00B010C2A006B000A0235
:1003A400F4010306B5020B02F501000C9500060CDE
:1003B400430694000307DF0BE00BEA0B010C2A0051
:1003C4006B000A02F2010306B3020B02F301EC0B09
:1003D4007A007B00000C9300060C4306920003078E
:1003E400F40BF50B1F0B7A007B0074007500700092
:0C03F4007100720073001F0BA304000ACC
:021FFE00FA0FD8
:00000001FF
