:020000040000FA
:10000000A304020AA3042A09A3043A00A3042B09A7
:10001000A3043B00A3042C09A3043C00A3042D0962
:10002000A3043D00100C24001A0CA3042109A3040E
:10003000300C2400340CA3042109A3046400A3049D
:10004000AB0B04006000A40284011F0E43060008ED
:0C0050008401220A0108000809080008C9
:10035600A4046600000C06006100100211014307A8
:10036600B50BB60BD80B010C2A006B000A02F40180
:100376000306B5020B02F501200C2600100C260020
:10038600060CA4043E00FE02C60B200CA4042600A4
:10039600FF0C9500DC0C430694000307D30BD40B2B
:1003A600D80B0A0C3000000C31000A0C9001110128
:1003B6004307DE0BDF0BB00B010C2A006B000A02B1
:1003C600B4000B020307F500B500200C2600100C44
:1003D6002600070CA4043E00FE02EF0B0000200CD2
:1003E600A4042600140215014307FA0BFB0BB00BFD
:0A03F60070007100B00BA304000AB0
:021FFE00FA0FD8
:00000001FF
