:020000040000FA
:10000000A304020AA3042A09A3043A00A3042B09A7
:10001000A3043B00A3042C09A3043C00A3042D0962
:10002000A3043D00100C24001A0CA3042109A3040E
:10003000300C2400340CA3042109A3046400A3049D
:10004000B60B04006000A40284011F0E43060008E2
:0C0050008401220A0108000809080008C9
:10036C00A4046600000C0600610010021101430792
:10037C00C00BC10BBB0B010C2A006B000A02F40171
:10038C000306B5020B02F501FD0C9500E80C4306C3
:10039C0094000307D20BD30BDE0B010C2A006B006D
:1003AC000A02F2010306B3020B02F301740075009A
:1003BC00200C2600100C2600060CA4043E00FE02A5
:1003CC00E50B200CA4042600000C9300320C430611
:1003DC0092000307F20BF30BBB0B7A007B0074004B
:1003EC0075000A0C3000000C310072007300BB0B5E
:0403FC00A304000A4C
:021FFE00FA0FD8
:00000001FF
