:020000040000FA
:10000000A304020AA3042A09A3043A00A3042B09A7
:10001000A3043B00A3042C09A3043C00A3042D0962
:10002000A3043D00100C24001A0CA3042109A3040E
:10003000300C2400340CA3042109A3046400A3049D
:10004000A10A04006000A40284011F0E43060008F8
:0C0050008401220A0108000809080008C9
:10014200A4046600000C06006100C90A010C2A0022
:100152006B000A02F6010306B7020B02F701200C3C
:100162002600100C2600420CA4043E00FE02B70A30
:10017200200CA4042600FF0C9700DC0C430696001A
:100182000307C40AC50AC90A010C3000000C310079
:10019200100211014306CE0ACF0AA70AFC0A010C7B
:1001A2002A006B000A02B6000B020307F700B70031
:1001B20072007300200C2600100C2600630CA404AD
:1001C2003E00FE02E20A0000200CA40426001602F1
:1001D20017014307ED0AEE0AFC0A14021501430750
:1001E200F30AF40AFC0A020C3000000C3100010C84
:1001F2003400000C3500D00011014306010B020B44
:10020200D00A370B010C2A006B000A02F601030622
:10021200B7020B02F701200C2600100C2600840CFA
:10022200A4043E00FE02130B160B200CA4042600AD
:10023200FF0C9700DC0C430696000307210B220BF0
:10024200370BD40015014306270B280B2F0B050C87
:100252009201130143072E0B2F0B370B030C3000B7
:10026200000C3100020C3400000C3500020C90012D
:10027200110143063D0B3E0B030B7B0B010C2A00C5
:100282006B000A02B6000B020307F700B700200C4E
:100292002600100C2600A60CA4043E00FE024F0B02
:1002A200200CA4042600160217014307590B5A0B0F
:1002B2007B0B020C940115014306600B610B680B6A
:1002C200050C920113014307670B680B7B0B040CAF
:1002D2003000000C3100050C920113014307720B30
:1002E200730B770B020C3000000C3100030C34004E
:1002F200000C3500030C900111014306810B820BA7
:100302003F0BC30B010C2A006B000A02F601030625
:10031200B7020B02F701200C2600100C2600C70CB6
:10032200A4043E00FE02930B0000200CA40426004D
:10033200FF0C9700DC0C430696000307A10BA20BEF
:10034200C30B030C940115014306A80BA90BB00BB8
:10035200050C920113014307AF0BB00BC30B050C45
:100362003000000C3100050C920113014307BA0B57
:10037200BB0BBF0B030C3000000C3100040C34002B
:10038200000C3500040C900111014306C90BCA0B85
:10039200830BF60B010C2A006B000A02B6000B025B
:1003A2000307F700B700200C2600100C2600E80C0B
:1003B200A4043E00FE02DB0BDE0B200CA40426008C
:1003C200160217014307E60BE70BF60B040C940128
:1003D20015014307ED0BEE0BF60B040C3000000C7D
:1003E2003100050C3200000C3300050C90011101A4
:0E03F2004306FC0BFD0BCB0BC90AA304000A4B
:021FFE00FA0FD8
:00000001FF
