:020000040000FA
:10000000A304020AA3042B09A3043D00A3042C09A2
:10001000A3043E00A405A3042D09A3043400A304F3
:100020002E09A3043500100C24001A0CA304220985
:10003000A304300C2400340CA3042209A30464009C
:10004000A304360B04006000A40284011F0E4306C3
:0E00500000088401230A0108000809080008BE
:10007400010C2A006B000A02B6000B020307F7000A
:10008400B700200C2600100C2600A60CA4043A008D
:10009400FA024A0A200CA404260016021701430798
:1000A400540A550A760A020C9401150143065B0AA8
:1000B4005C0A630A050C920113014307620A630A8E
:1000C400760A040C3000000C3100050C9201130177
:1000D40043076D0A6E0A720A020C3000000C3100EC
:1000E400030C3400000C3500030C9001110143068D
:1000F4007C0A7D0A3A0AA305570A010C2A006B0000
:100104000A02F6010306B7020B02F701240C2600CB
:10011400140C2600840CA4043A00FA028F0A920AF2
:10012400240CA4042600FF0C9700DC0C4306960064
:1001340003079D0A9E0ABE0AD40015014306A30ABA
:10014400A40AAB0A050C920113014307AA0AAB0ADD
:10015400BE0A030C3000000C3100050C920113019F
:100164004307B50AB60ABA0A010C3000000C310084
:10017400020C3400000C3500020C900111014306FE
:10018400C40AC50A7F0AA304760A010C2A006B007C
:100194000A02F6010306B7020B02F70172007300AC
:1001A40074007500240C2600140C2600420CA404D0
:1001B4003A00FA02DB0A240CA4042600FF0C970080
:1001C400DC0C430696000307E80AE90AED0A010C71
:1001D4003000000C3100100211014306F20AF30A48
:1001E400C70A2E0B010C2A006B000A02B6000B0290
:1001F4000307F700B700200C2600100C2600630C40
:10020400A4043A00FA02040B0000200CA404260003
:100214001602170143070F0B100B2E0B14021501C6
:100224004306150B160B1D0B050C92011301430716
:100234001C0B1D0B2E0B020C3000000C3100050CA6
:10024400920113014307270B280B2A0B700071003E
:10025400010C3400000C3500D00011014306330BAF
:10026400340BF40AA304BE0AA4046600000C0600BE
:100274006800590C2700800C020061001002110173
:100284004307450B460B970B000C9700060C4306DF
:10029400960003074E0B4F0B590B010C2A006B0001
:1002A4000A02F2010306B3020B02F301740B7D0090
:1002B4007E00740B140C2600240C2600EF0CA404FE
:1002C4003A00640BFA02630B670B0000140CA404DD
:1002D4002600010C2A006B000A02FD010306BE027F
:1002E4000B02FE01030C9E00200C43069D00030735
:1002F4007C0B7D0B5C0B010C2A006B000A02F601DF
:100304000306B7020B02F701000C9300060C430628
:10031400920003078E0B8F0B970B7D007E007600F7
:1003240077007000710072007300060CA4043C0096
:10033400130C3B00AD0C3A00FA029E0BFB029E0B21
:10034400FC029E0B0000A404100211014307AB0B36
:10035400AD0BA304ED0A000C9700060C43069600AF
:100364000307B50BB60BC00B010C2A006B000A0285
:10037400F2010306B3020B02F301DB0B7D007E00E6
:10038400DB0B100C2600200C2600EF0CA4043A0012
:10039400CB0BFA02CA0BCE0B0000100CA4042600EF
:1003A400010C2A006B000A02FD010306BE020B02C7
:1003B400FE01030C9E00200C43069D000307E30B83
:1003C400E40BC30B010C2A006B000A02F6010306BE
:1003D400B7020B02F701000C9300060C43069200CF
:1003E4000307F50BF60BFF0B7D007E00760077000C
:0C03F4007000710072007300AB0BAB0BCB
:10042E00010C2A006B000A02F6010306B7020B024A
:10043E00F701240C2600140C2600C70CA4043A0065
:10044E00FA02270A0000240CA4042600FF0C9700D1
:10045E00DC0C430696000307350A360A570A030CCE
:10046E009401150143063C0A3D0A440A050C92010B
:10047E0013014307430A440A570A050C3000000CC7
:10048E003100050C9201130143074E0A4F0A530A1D
:10049E00030C3000000C3100040C3400000C35004D
:1004AE00040C9001110143065D0A5E0A170A9C0AAC
:1004BE00010C2A006B000A02B6000B020307F700BC
:1004CE00B700200C2600100C2600E80CA4043A00FD
:1004DE00FA026F0A720A200CA404260016021701F3
:1004EE0043077A0A7B0A9C0A040C94011501430601
:1004FE00810A820A890A050C920113014307880AB0
:10050E00890A9C0A060C3000000C3100050C920181
:10051E0013014307930A940A980A040C3000000C46
:10052E003100050C3400000C3500050C9001110152
:10053E004306A20AA30A5F0AE40A010C2A006B0012
:10054E000A02F6010306B7020B02F701240C26007D
:10055E00140C2600F90CA4043A00FA02B40A0000A6
:10056E00240CA4042600DC0C96014307C20A970251
:10057E004307C20AC30AE40A050C94011501430697
:10058E00C90ACA0AD10A050C920113014307D00AFF
:10059E00D10AE40A070C3000000C3100050C920160
:1005AE0013014307DB0ADC0AE00A050C3000000CDD
:1005BE003100060C3400000C3500060C90011101C0
:1005CE004306EA0AEB0AA40A2B0B010C2A006B0065
:1005DE000A02B6000B020307F700B700200C260034
:1005EE00100C26009F0CA4043A00FD0AFA02FC0A25
:1005FE00000B0000200CA40426001602170143076E
:10060E00090B0A0B2B0B060C940115014306100B5C
:10061E00110B180B050C920113014307170B180B46
:10062E002B0B080C3000000C3100050C920113014D
:10063E004307220B230B270B060C3000000C310056
:10064E00070C3400000C3500070C90011101430615
:10065E00310B320BEC0A750B010C2A006B000A02EF
:10066E00F6010306B7020B02F701240C2600140C48
:10067E002600A90CA4043A00440BFA02430B470BC4
:10068E000000240CA4042600DC0C96014307530B37
:10069E0097024307530B540B750B070C940115016E
:1006AE0043065A0B5B0B620B050C920113014307B9
:1006BE00610B620B750B090C3000000C3100050C40
:1006CE009201130143076C0B6D0B710B070C30007D
:1006DE00000C3100080C3400000C3500080C9001A1
:1006EE00110143067B0B7C0B330BBC0B010C2A0058
:1006FE006B000A02B6000B020307F700B700200CCE
:10070E002600100C2600B30CA4043A008E0BFA023D
:10071E008D0B910B0000200CA4042600160217016D
:10072E0043079A0B9B0BBC0B080C94011501430657
:10073E00A10BA20BA90B050C920113014307A80BE9
:10074E00A90BBC0B0A0C3000000C3100050C9201F9
:10075E0013014307B30BB40BB80B080C3000000C9D
:10076E003100090C3400000C3500090C9001110108
:10077E004306C20BC30B7D0BF40B010C2A006B005E
:10078E000A02F6010306B7020B02F701240C26003B
:10079E00140C2600BD0CA4043A00D50BFA02D40B9F
:1007AE00D80B0000240CA4042600DC0C9601430791
:1007BE00E40B97024307E40BE50BF40B090C9401D1
:1007CE0015014307EB0BEC0BF40B090C3000000C7E
:1007DE003100050C3200000C33000A0C900111019F
:1007EE004306FA0BFB0BC40BA304ED0AA304000A89
:021FFE00FA0FD8
:00000001FF
